:100000000C942A000C9447000C9447000C944F0069
:100010000C9447000C9447000C9447000C94C900C2
:100020000C9447000C9447000C9447000C94470034
:100030000C9447000C9447000C9447000C94470024
:100040000C9447000C9447000C9447000C94470014
:100050000C94470011241FBECFE5D8E0DEBFCDBF12
:1000600010E0A0E6B0E0EEECFFE002C005900D92DB
:10007000A63CB107D9F716E0A6ECB0E001C01D928E
:10008000AC3EB107E1F70E9449060C94E5070C94D9
:100090000000BA988BB780628BBF789408951F9246
:1000A0000F920FB60F9211242F933F934F938F937C
:1000B0009F93AF93BF931092D7021092D60288E518
:1000C00093E59BBD8ABD89E194E00197F1F700C0FB
:1000D00000001DBC1CBC30E080E090E008B604FECF
:1000E000FDCF28B7206128BF880F991F9093D702B2
:1000F0008093D602B2991CC03F5F3D3079F79C01D6
:1001000020703B7F43E02030340711F18091E506F9
:100110009091E6069BBD8ABDBF91AF919F918F9153
:100120004F913F912F910F900FBE0F901F901895F8
:10013000A8E2AA95F1F7B29BDFCFB8E2BA95F1F742
:10014000B29BDACF01969093D7028093D602D4CF98
:10015000C09A8F7390709093D7028093D60281E0FB
:100160008093E4068091E5069091E6069BBD8ABDEA
:1001700089B7806189BF8FE79FE4A2E181509040F9
:10018000A040E1F700C00000C0988AB780628ABF33
:10019000C3CF1F920F920FB60F9211242F938F93FC
:1001A0009F93EF93FF93442009F1252D2130E9F12E
:1001B000C101F101E652FD4F20812CBF0196FC01E7
:1001C000E652FD4F208123BD01961C0122E08030C4
:1001D0009207E9F4852D552021F591E09093DE06F4
:1001E00091E0582E59262224332411C0852D8130C8
:1001F00059F1C101F101E652FD4F208123BD23B524
:100200002CBF01961C0122E08030920719F3FF9168
:10021000EF919F918F912F910F900FBE0F901F9094
:10022000189591E09093CA00DBCFC101F101EE5225
:10023000FF4F20812CBF0196FC01EE52FF4F208121
:1002400023BD01961C01DFCFC101F101EE52FF4F2A
:10025000D4CF8EB589608EBD1DBC1CBC80E197E2F9
:100260009BBD8ABD89B7806189BF08959FEF9FB903
:10027000779BFECF80648FB9779BFECF872F99271E
:10028000AA27BB278FB9779BFECFCB01AA27BB2715
:100290008FB9779BFECFBB27A72F962F852F8FB9BE
:1002A000779BFECF4FB9779BFECF2FB9779BFECFC1
:1002B0008FEF8FB9779BFECF8FB10895AB01BC0153
:1002C000A9E0440F551F661F771FAA95D1F781E15A
:1002D0002FEF0E9436019FEF9FB9779BFECF8FB122
:1002E0008823D1F79FEF9FB9779BFECF8FB18E3FC9
:1002F000D1F7ECEDF4E09FEF9FB9779BFECF8FB184
:10030000819386E0EC3DF807B9F78FEF8FB9779BC3
:10031000FECF8FEF8FB9779BFECF08958F929F927C
:10032000AF92BF92CF92DF92FF920F931F93CF9322
:10033000DF935C014B01F42E413009F483C08091BE
:10034000C3009091C40080979093C4008093C30031
:10035000EFEF803E9E0709F494C0C090CB00D09090
:10036000CC00D7FC81C0C091C300D091C400609183
:10037000DC067091DD066C0D7D1D80E090E00E9432
:100380005E0109C0A096D093C400C093C300C09181
:10039000C300D091C400F2E0C030DF0734F58E0115
:1003A00004521B4FF8018081882389F19091DD046C
:1003B000992399F09281992381F0853E71F083858C
:1003C0008E7159F4CE018C519B4FB50143E050E042
:1003D0000E94D707009709F466C0FF2099F6A097FE
:1003E000D093C400C093C300D2CF8091CD001092AF
:1003F000C4001092C3000894C11CD11CD092CC0040
:10040000C092CB00882319F4C0E0D0E0B0CF80EEDA
:100410009FEF9093C4008093C3001092CC00109281
:10042000CB001092CD0020E030E0C901DF91CF91E8
:100430001F910F91FF90DF90CF90BF90AF909F9052
:100440008F900895C091C300D091C400A096D0931E
:10045000C400C093C30022E0C030D207D9F1C090DD
:10046000CB00D090CC0083CF1092CC001092CB0068
:100470001092C4001092C300C0E0D0E0CC24DD2470
:1004800076CF80EE91E09093C4008093C300C0903B
:10049000CB00D090CC000894C108D108D092CC00F9
:1004A000C092CB005ECFD801F40180E090E02D91A6
:1004B000219301968B309105D1F7F4011386F80151
:1004C000338D20E0828D280F311D3093D902209387
:1004D000D802ABCF1092C4001092C300C090CB00E2
:1004E000D090CC000894C11CD11CD092CC00C092FA
:1004F000CB00C0E0D0E03BCFCF93DF932091CE0084
:100500003091CF002F5F3F4F2817390769F4409192
:10051000D0005091D1004F5F5F4F5093D100409376
:10052000D0004115510511F5EC01D070CC0FDD1F45
:10053000D093D100C093D000692F77278091DA043F
:100540009091DB04680F791F80E090E00E945E01CB
:10055000C452DB4F998180E02881820F911D9093D6
:10056000CF008093CE00DF91CF9108953093CF00DC
:100570002093CE00C901DF91CF910895EF92FF92B1
:100580000F931F93CF93DF93EC01F8942091E7062C
:100590003091E8064091E9065091EA06A9E05695A7
:1005A000479537952795AA95D1F7CA01B901660FE6
:1005B000771F881F991F660F771F881F991F660F67
:1005C000771F881F991F660F771F881F991F621B4F
:1005D000730B840B950B2091EB0630E040E050E06C
:1005E0000E94A10779018A012115310541055105B4
:1005F00059F412C00894E108F10801091109E11445
:10060000F1040105110541F0CE010E947C02EC01CC
:100610008FEFCF3FD80771F77894CE01DF91CF915C
:100620001F910F91FF90EF9008950F931F93CF9319
:10063000DF938B019C01D42FC52FB9E0000F111F50
:10064000221F331FBA95D1F781E1B901A8012FEF1D
:100650000E9436019FEF9FB9779BFECF8FB1882311
:10066000D1F79FEF9FB9779BFECF8FB18E3FD1F728
:10067000CE01E92FFC2F80E090E03FEF3FB9779B60
:10068000FECF2FB12193019622E080309207B1F77F
:100690008FEF8FB9779BFECF8FEF8FB9779BFECF10
:1006A000DF91CF911F910F910895DF92EF92FF920A
:1006B0000F931F93CF93DF93D090EB06C091DF068B
:1006C000D091E006DD2009F442C00297BC0180E031
:1006D00090E02D2D30E040E050E00E946F077B015C
:1006E0008C01CE01A0E0B0E0E80EF91E0A1F1B1F2E
:1006F000C0E0D0E004C08091CA00882321F480913A
:10070000DE068823C1F38091CA00882381F480919A
:10071000DE06882321F521968D2D90E0C817D90794
:10072000B4F40894E11CF11C011D111DE8CFC801AF
:10073000B70142ED50E00E9415031092CA00D0901C
:10074000EB0621968D2D90E0C817D90754F3DF9161
:10075000CF911F910F91FF90EF90DF900895C80106
:10076000B7014AED52E00E9415031092DE06D090C8
:10077000EB06D1CF8FEF8FB9779BFECF8FB1089566
:100780008FB9779BFECF089587B3806B87BB8EE5CB
:100790008DB981E08EB90895959A84E08A95F1F734
:1007A00095980895DF93CF930F92CDB7DEB7969AC1
:1007B00098EC9A95F1F7982F92959F7095BB898345
:1007C0000E94CC03898185BB0E94CC030F90CF91FE
:1007D000DF910895DF93CF930F92CDB7DEB7969850
:1007E00098EC9A95F1F7982F92959F7095BB898315
:1007F0000E94CC03898185BB0E94CC030F90CF91CE
:10080000DF9108956F927F928F929F92BF92CF92C5
:10081000DF92EF92FF920F931F93DF93CF93CDB7A9
:10082000DEB762970FB6F894DEBF0FBECDBF7B0177
:100830008C01413009F450C080EC0E94EA03E114BD
:10084000F10401051105A1F1CE0101969A8B898B66
:100850006C018AE0682E712C812C912CC801B701A3
:10086000A40193010E94A107605DF60161936F01ED
:10087000BE2EF989BF1A79018A01E114F10401053C
:10088000110561F7BB20A1F0EB2CFF24E7FCF094ED
:1008900081E090E08C0F9D1FE80EF91EBA94089439
:1008A000E108F108F70180810E94D203BB20B1F773
:1008B00062960FB6F894DEBF0FBECDBFCF91DF9129
:1008C0001F910F91FF90EF90DF90CF90BF909F907E
:1008D0008F907F906F90089580E80E94EA03AFCFD9
:1008E000BC016250704080E090E02091EB0630E067
:1008F00040E050E00E946F072091DF063091E00653
:1009000040E050E0620F731F841F951F0E945E013C
:100910008091FE04883011F081E008956091E7062F
:100920007091E8068091E9069091EA06ECEFF4E018
:10093000982F872F762F6627229130E040E050E0F5
:10094000622B732B842B952B24E0E83FF20781F771
:100950006093E7067093E8068093E9069093EA06B1
:100960002091F204422E4A9442E00E940204642D37
:10097000772767FD70956F5F7F4F882777FD80959C
:10098000982F20E03BE147EB50E00E946F07209159
:10099000E7063091E8064091E9065091EA060E9488
:1009A000A1072093D2023093D3024093D4025093F4
:1009B000D5023093E6062093E5063BBD2ABD80E0D4
:1009C000089581E00E94EA0387E99AE30197F1F72D
:1009D00000C0000008958FE084BB81B3806681BBB6
:1009E00087EC9FEA0197F1F700C0000080E30E94C6
:1009F000EA0387EB9BE00197F1F700C0000080E37A
:100A00000E94EA038BE291E00197F1F700C0000039
:100A100080E30E94EA0388E20E94EA0388E20E94DF
:100A2000EA038CE00E94EA030E94E10486E00E944F
:100A3000EA030895CF93DF93EC01613079F080EC05
:100A40000E94EA038881882331F021960E94D20314
:100A500089918823D9F7DF91CF91089580E80E948A
:100A6000EA03F0CFCF93C49A82E390E02FEF2FB93F
:100A7000779BFECF0197D9F7C49887EB9BE001974E
:100A8000F1F700C0000080E040E050E0BA0125E945
:100A90000E9436011092E2061092E1062FEF2FB964
:100AA000779BFECF8FB1813071F08091E1069091FC
:100AB000E206A3E0883E9A07C0F501969093E2060D
:100AC0008093E106ECCF8091E1069091E206B3E0DD
:100AD000883E9B0750F581E040E050E0BA012FEFDF
:100AE0000E9436011092E2061092E10680E090E04A
:100AF000CFEFCFB9779BFECF2FB1222339F1A3E0FF
:100B0000883E9A0708F047C081E040E050E0BA0113
:100B10002FEF0E9436018091E1069091E206019646
:100B20009093E2068093E106E4CF80E690E061E0F6
:100B30000E941A058FE79FE4A2E181509040A040F7
:100B4000E1F700C0000081E0CF910895B3E0883E56
:100B50009B0708F580E140E052E060E070E02FEF95
:100B60000E9436011092E2061092E1062FEF2FB993
:100B7000779BFECF8FB1882389F08091E106909119
:100B8000E206A3E0883E9A0710F501969093E206EC
:100B90008093E106ECCF81E790E0C9CF8091E10638
:100BA0009091E206B3E0883E9B0788F483E990E0E9
:100BB00061E00E941A058FE79FE4A2E18150904016
:100BC000A040E1F700C00000699880E0BDCF82E856
:100BD00090E0ADCF60E070E0CB010E945E010E942A
:100BE000E10480E80E94EA0380911205863421F432
:100BF00080911505813331F083EB90E061E00E9434
:100C00001A05FFCF809116058633B1F784EA90E08C
:100C100061E00E941A058FE79FE4A2E181509040B5
:100C2000A040E1F700C000008091EA0490E09093BA
:100C3000DB048093DA043091F30420E04091F20465
:100C4000240F311D220F331F280F391F3093DD066B
:100C50002093DC069091EE0480E04091ED04840F37
:100C6000911D60E170E00E948E07620F731F709308
:100C7000E0066093DF068091E9048093EB06089517
:100C800083B7896683BF85B5896685BDBB9A8F9A10
:100C900008957F928F929F92AF92BF92CF92DF92F0
:100CA000EF92FF920F931F93DF93CF93CDB7DEB7F1
:100CB0002D970FB6F894DEBF0FBECDBF8FEB94ED2E
:100CC000A1E081509040A040E1F700C0000087B350
:100CD000806B87BB8EE58DB981E08EB90E94EB04F5
:100CE000C29A0E9432058823E1F70E9440060E94C2
:100CF000EA058EB589608EBD1DBC1CBC80E197E203
:100D00009BBD8ABD89B7806189BFBA988BB7806265
:100D10008BBF7894B89A7E010894E11CF11C41E0E5
:100D2000772473948FEB90E0B7010E948E018C01C1
:100D3000009749F441E08FEB90E0B7010E948E01EB
:100D40008C010097B9F380E80E94EA030E94E10455
:100D5000C70161E00E941A05C8010E94700488233F
:100D600049F755247092CA002224332478948FEFD7
:100D70000F3F180731F449C09FEF0F3F190709F4DF
:100D800044C0C8010E945503C8010E947C028C0126
:100D900080B38C7021F0839938C082999AC0809179
:100DA000E406882349F3902E812E1092E406C09029
:100DB000D602D090D702560190E2C916D10429F18B
:100DC000A1E2CA16D10409F484C0B1E0CB16D10463
:100DD00009F464C083E0C816D10409F441C092E06C
:100DE000C916D10411F1A6E0CA16D10479F1B5E013
:100DF000AB16B10409F0BBCF0091D8021091D90213
:100E00008FEF0F3F180709F0BCCF41E0F8944D87F2
:100E10000E94E1048FE799EAA3E081509040A0404E
:100E2000E1F700C000004D857DCF8091D202909106
:100E3000D3029093E6068093E5069BBD8ABD52E0FF
:100E4000A52EB12CA6E0CA16D10489F6892D982DBD
:100E50000E94BE028C01A090D602B090D702C7CFEC
:100E60006091D2027091D3028091D4029091D50208
:100E700024E130E040E050E00E94A1078091E506C7
:100E80009091E606821B930B9093E6068093E5060D
:100E90009BBD8ABD63E0A62EB12CA1CF6091D2028A
:100EA0007091D3028091D4029091D50224E130E078
:100EB00040E050E00E94A1078091E5069091E6068F
:100EC000820F931F9093E6068093E5069BBD8ABD33
:100ED00081CF40E09BCFC29A0895B89A0895629F4F
:100EE000D001739FF001829FE00DF11D649FE00D22
:100EF000F11D929FF00D839FF00D749FF00D659F83
:100F0000F00D9927729FB00DE11DF91F639FB00D81
:100F1000E11DF91FBD01CF011124089597FB092E92
:100F200007260AD077FD04D02ED006D000201AF470
:100F3000709561957F4F0895F6F7909581959F4F35
:100F40000895A1E21A2EAA1BBB1BFD010DC0AA1F0A
:100F5000BB1FEE1FFF1FA217B307E407F50720F022
:100F6000A21BB30BE40BF50B661F771F881F991F9D
:100F70001A9469F760957095809590959B01AC01E6
:100F8000BD01CF010895AA1BBB1B51E107C0AA1FD9
:100F9000BB1FA617B70710F0A61BB70B881F991F1A
:100FA0005A95A9F780959095BC01CD010895FB0154
:100FB000DC014150504030F08D910190801919F4BE
:0E0FC0000020B9F7881B990B0895F894FFCF15
:100FCE0043415244204552524F522D434D443020FE
:100FDE000043415244204552524F522D434D44310D
:100FEE00200043415244204552524F522D434D440E
:100FFE003136004D4D4320494E495449414C495AD2
:10100E00454421004641543136204445544543540D
:10101E004544004E4F54204120464154313600572E
:06102E00415600E0FF0046
:00000001FF
